{
  "contractName": "BloodSupply",
  "abi": [
    {
      "inputs": [],
      "stateMutability": "nonpayable",
      "type": "constructor"
    },
    {
      "anonymous": false,
      "inputs": [
        {
          "indexed": false,
          "internalType": "address",
          "name": "supplierAddress",
          "type": "address"
        },
        {
          "indexed": false,
          "internalType": "uint256",
          "name": "bloodId",
          "type": "uint256"
        },
        {
          "indexed": false,
          "internalType": "address",
          "name": "hospitalAddress",
          "type": "address"
        },
        {
          "indexed": false,
          "internalType": "uint256",
          "name": "shippingTime",
          "type": "uint256"
        }
      ],
      "name": "EventBloodShipped",
      "type": "event"
    },
    {
      "anonymous": false,
      "inputs": [
        {
          "indexed": false,
          "internalType": "address",
          "name": "hospital",
          "type": "address"
        },
        {
          "indexed": false,
          "internalType": "string",
          "name": "hospitalName",
          "type": "string"
        },
        {
          "indexed": false,
          "internalType": "uint256",
          "name": "phoneNumber",
          "type": "uint256"
        },
        {
          "indexed": false,
          "internalType": "uint256",
          "name": "addedTime",
          "type": "uint256"
        }
      ],
      "name": "EventHospitalAdded",
      "type": "event"
    },
    {
      "anonymous": false,
      "inputs": [
        {
          "indexed": false,
          "internalType": "address",
          "name": "supplier",
          "type": "address"
        },
        {
          "indexed": false,
          "internalType": "string",
          "name": "organizationName",
          "type": "string"
        },
        {
          "indexed": false,
          "internalType": "uint256",
          "name": "phoneNumber",
          "type": "uint256"
        },
        {
          "indexed": false,
          "internalType": "uint256",
          "name": "addedTime",
          "type": "uint256"
        }
      ],
      "name": "EventSupplierAdded",
      "type": "event"
    },
    {
      "inputs": [
        {
          "internalType": "uint256",
          "name": "",
          "type": "uint256"
        }
      ],
      "name": "hospitals",
      "outputs": [
        {
          "internalType": "address",
          "name": "",
          "type": "address"
        }
      ],
      "stateMutability": "view",
      "type": "function",
      "constant": true
    },
    {
      "inputs": [],
      "name": "owner",
      "outputs": [
        {
          "internalType": "address",
          "name": "",
          "type": "address"
        }
      ],
      "stateMutability": "view",
      "type": "function",
      "constant": true
    },
    {
      "inputs": [
        {
          "internalType": "uint256",
          "name": "",
          "type": "uint256"
        }
      ],
      "name": "suppliers",
      "outputs": [
        {
          "internalType": "address",
          "name": "",
          "type": "address"
        }
      ],
      "stateMutability": "view",
      "type": "function",
      "constant": true
    },
    {
      "inputs": [
        {
          "internalType": "address",
          "name": "_supplierAddress",
          "type": "address"
        },
        {
          "internalType": "string",
          "name": "_supplierName",
          "type": "string"
        },
        {
          "internalType": "uint256",
          "name": "_phoneNumber",
          "type": "uint256"
        }
      ],
      "name": "addSupplier",
      "outputs": [],
      "stateMutability": "nonpayable",
      "type": "function"
    },
    {
      "inputs": [
        {
          "internalType": "address",
          "name": "_hospitalAddress",
          "type": "address"
        },
        {
          "internalType": "string",
          "name": "_hospitalName",
          "type": "string"
        },
        {
          "internalType": "uint256",
          "name": "_phoneNumber",
          "type": "uint256"
        }
      ],
      "name": "addHospital",
      "outputs": [],
      "stateMutability": "nonpayable",
      "type": "function"
    },
    {
      "inputs": [
        {
          "internalType": "string",
          "name": "_donorName",
          "type": "string"
        },
        {
          "internalType": "uint256",
          "name": "_age",
          "type": "uint256"
        },
        {
          "internalType": "string",
          "name": "_gender",
          "type": "string"
        },
        {
          "internalType": "string",
          "name": "_Address",
          "type": "string"
        },
        {
          "internalType": "string",
          "name": "_bloodGroup",
          "type": "string"
        },
        {
          "internalType": "uint256",
          "name": "_bloodVolume",
          "type": "uint256"
        }
      ],
      "name": "addBlood",
      "outputs": [],
      "stateMutability": "nonpayable",
      "type": "function"
    },
    {
      "inputs": [
        {
          "internalType": "uint256",
          "name": "_blood_id",
          "type": "uint256"
        },
        {
          "internalType": "address",
          "name": "_hospitalAddress",
          "type": "address"
        }
      ],
      "name": "shipBloodToHospital",
      "outputs": [],
      "stateMutability": "nonpayable",
      "type": "function"
    },
    {
      "inputs": [
        {
          "internalType": "uint256",
          "name": "_blood_id",
          "type": "uint256"
        },
        {
          "internalType": "string",
          "name": "_patientName",
          "type": "string"
        },
        {
          "internalType": "uint256",
          "name": "_age",
          "type": "uint256"
        },
        {
          "internalType": "string",
          "name": "_address",
          "type": "string"
        },
        {
          "internalType": "string",
          "name": "_bloodGroup",
          "type": "string"
        }
      ],
      "name": "giveBloodToPatients",
      "outputs": [],
      "stateMutability": "nonpayable",
      "type": "function"
    },
    {
      "inputs": [],
      "name": "getDataOfSuppliers",
      "outputs": [
        {
          "components": [
            {
              "internalType": "address",
              "name": "supplierAddress",
              "type": "address"
            },
            {
              "internalType": "string",
              "name": "organizationName",
              "type": "string"
            },
            {
              "internalType": "uint256",
              "name": "phoneNumber",
              "type": "uint256"
            },
            {
              "internalType": "uint256",
              "name": "addedTime",
              "type": "uint256"
            }
          ],
          "internalType": "struct DataStructure.Supplier[]",
          "name": "",
          "type": "tuple[]"
        }
      ],
      "stateMutability": "view",
      "type": "function",
      "constant": true
    },
    {
      "inputs": [],
      "name": "getDataOfHospitals",
      "outputs": [
        {
          "components": [
            {
              "internalType": "address",
              "name": "hospitalAddress",
              "type": "address"
            },
            {
              "internalType": "string",
              "name": "hospital_name",
              "type": "string"
            },
            {
              "internalType": "uint256",
              "name": "phoneNumber",
              "type": "uint256"
            },
            {
              "internalType": "uint256",
              "name": "addedTime",
              "type": "uint256"
            }
          ],
          "internalType": "struct DataStructure.Hospital[]",
          "name": "",
          "type": "tuple[]"
        }
      ],
      "stateMutability": "view",
      "type": "function",
      "constant": true
    },
    {
      "inputs": [],
      "name": "getDataOfBlood",
      "outputs": [
        {
          "components": [
            {
              "internalType": "uint256",
              "name": "bloodUniqueId",
              "type": "uint256"
            },
            {
              "internalType": "string",
              "name": "bloodGroup",
              "type": "string"
            },
            {
              "internalType": "uint256",
              "name": "donatedTime",
              "type": "uint256"
            },
            {
              "internalType": "enum DataStructure.Status",
              "name": "currentStatus",
              "type": "uint8"
            }
          ],
          "internalType": "struct DataStructure.BloodDetails[]",
          "name": "",
          "type": "tuple[]"
        }
      ],
      "stateMutability": "view",
      "type": "function",
      "constant": true
    },
    {
      "inputs": [
        {
          "internalType": "uint256",
          "name": "_id",
          "type": "uint256"
        }
      ],
      "name": "getBloodStatus",
      "outputs": [
        {
          "internalType": "string",
          "name": "",
          "type": "string"
        }
      ],
      "stateMutability": "view",
      "type": "function",
      "constant": true
    },
    {
      "inputs": [],
      "name": "getDataOfDonors",
      "outputs": [
        {
          "components": [
            {
              "internalType": "string",
              "name": "donorName",
              "type": "string"
            },
            {
              "internalType": "uint256",
              "name": "age",
              "type": "uint256"
            },
            {
              "internalType": "string",
              "name": "gender",
              "type": "string"
            },
            {
              "internalType": "string",
              "name": "Address",
              "type": "string"
            },
            {
              "internalType": "string",
              "name": "bloodGroup",
              "type": "string"
            },
            {
              "internalType": "uint256",
              "name": "bloodVolume",
              "type": "uint256"
            },
            {
              "internalType": "uint256",
              "name": "bloodUniqueId",
              "type": "uint256"
            },
            {
              "internalType": "uint256",
              "name": "donatedTime",
              "type": "uint256"
            }
          ],
          "internalType": "struct DataStructure.Donor[]",
          "name": "",
          "type": "tuple[]"
        }
      ],
      "stateMutability": "view",
      "type": "function",
      "constant": true
    },
    {
      "inputs": [],
      "name": "getDataOfPatients",
      "outputs": [
        {
          "components": [
            {
              "internalType": "string",
              "name": "patientName",
              "type": "string"
            },
            {
              "internalType": "uint256",
              "name": "age",
              "type": "uint256"
            },
            {
              "internalType": "string",
              "name": "Address",
              "type": "string"
            },
            {
              "internalType": "string",
              "name": "bloodGroup",
              "type": "string"
            },
            {
              "internalType": "uint256",
              "name": "usedBloodId",
              "type": "uint256"
            },
            {
              "internalType": "uint256",
              "name": "usedTime",
              "type": "uint256"
            }
          ],
          "internalType": "struct DataStructure.Patient[]",
          "name": "",
          "type": "tuple[]"
        }
      ],
      "stateMutability": "view",
      "type": "function",
      "constant": true
    }
  ],
  "bytecode": "0x608060405234801561000f575f80fd5b50335f806101000a81548173ffffffffffffffffffffffffffffffffffffffff021916908373ffffffffffffffffffffffffffffffffffffffff160217905550612feb8061005c5f395ff3fe608060405234801561000f575f80fd5b50600436106100e8575f3560e01c8063bbf299581161008a578063cea2312111610064578063cea2312114610234578063db4ebc6114610264578063e8c6e98f14610282578063f976fd2c1461029e576100e8565b8063bbf29958146101c8578063c4d1a28c146101f8578063ce1a6cab14610216576100e8565b806381dc6fd2116100c657806381dc6fd2146101425780638da5cb5b146101725780639a8243c114610190578063b8527cfd146101ac576100e8565b80630651ba5c146100ec5780632c9fe87b146101085780636baba7e214610126575b5f80fd5b61010660048036038101906101019190611eac565b6102bc565b005b610110610514565b60405161011d919061212f565b60405180910390f35b610140600480360381019061013b919061214f565b6106ce565b005b61015c60048036038101906101579190612248565b610886565b6040516101699190612282565b60405180910390f35b61017a6108c1565b6040516101879190612282565b60405180910390f35b6101aa60048036038101906101a59190611eac565b6108e4565b005b6101c660048036038101906101c1919061229b565b610b3c565b005b6101e260048036038101906101dd9190612248565b610ccf565b6040516101ef91906123ae565b60405180910390f35b610200610ea5565b60405161020d91906124f8565b60405180910390f35b61021e61107b565b60405161022b9190612695565b60405180910390f35b61024e60048036038101906102499190612248565b6114a0565b60405161025b9190612282565b60405180910390f35b61026c6114db565b6040516102799190612804565b60405180910390f35b61029c60048036038101906102979190612824565b611848565b005b6102a66119db565b6040516102b3919061297d565b60405180910390f35b335f8054906101000a900473ffffffffffffffffffffffffffffffffffffffff1673ffffffffffffffffffffffffffffffffffffffff168173ffffffffffffffffffffffffffffffffffffffff161461034a576040517f08c379a0000000000000000000000000000000000000000000000000000000008152600401610341906129e7565b60405180910390fd5b60405180608001604052808573ffffffffffffffffffffffffffffffffffffffff1681526020018481526020018381526020014281525060075f60015481526020019081526020015f205f820151815f015f6101000a81548173ffffffffffffffffffffffffffffffffffffffff021916908373ffffffffffffffffffffffffffffffffffffffff16021790555060208201518160010190816103ed9190612bff565b5060408201518160020155606082015181600301559050506001600c5f8673ffffffffffffffffffffffffffffffffffffffff1673ffffffffffffffffffffffffffffffffffffffff1681526020019081526020015f205f6101000a81548160ff021916908315150217905550600384908060018154018082558091505060019003905f5260205f20015f9091909190916101000a81548173ffffffffffffffffffffffffffffffffffffffff021916908373ffffffffffffffffffffffffffffffffffffffff16021790555060015f8154809291906104cc90612cfb565b91905055507faf5569555a5501c2fe458d01733f3a371409eddb75352016d7b5cd77c800006c848484426040516105069493929190612d51565b60405180910390a150505050565b60605f60065467ffffffffffffffff81111561053357610532611d55565b5b60405190808252806020026020018201604052801561056c57816020015b610559611bb1565b8152602001906001900390816105515790505b5090505f5b6006548110156106c6575f604051806080016040528060095f8581526020019081526020015f2060060154815260200160095f8581526020019081526020015f2060040180546105c090612a32565b80601f01602080910402602001604051908101604052809291908181526020018280546105ec90612a32565b80156106375780601f1061060e57610100808354040283529160200191610637565b820191905f5260205f20905b81548152906001019060200180831161061a57829003601f168201915b5050505050815260200160095f8581526020019081526020015f20600701548152602001600b5f8581526020019081526020015f206003015f9054906101000a900460ff16600381111561068e5761068d611fca565b5b8152509050808383815181106106a7576106a6612d9b565b5b60200260200101819052505080806106be90612cfb565b915050610571565b508091505090565b33600c5f8273ffffffffffffffffffffffffffffffffffffffff1673ffffffffffffffffffffffffffffffffffffffff1681526020019081526020015f205f9054906101000a900460ff16610758576040517f08c379a000000000000000000000000000000000000000000000000000000000815260040161074f90612e38565b60405180910390fd5b60405180610100016040528088815260200187815260200186815260200185815260200184815260200183815260200160065481526020014281525060095f60065481526020019081526020015f205f820151815f0190816107ba9190612bff565b506020820151816001015560408201518160020190816107da9190612bff565b5060608201518160030190816107f09190612bff565b5060808201518160040190816108069190612bff565b5060a0820151816005015560c0820151816006015560e082015181600701559050506001600b5f60065481526020019081526020015f206003015f6101000a81548160ff0219169083600381111561086157610860611fca565b5b021790555060065f81548092919061087890612cfb565b919050555050505050505050565b60048181548110610895575f80fd5b905f5260205f20015f915054906101000a900473ffffffffffffffffffffffffffffffffffffffff1681565b5f8054906101000a900473ffffffffffffffffffffffffffffffffffffffff1681565b335f8054906101000a900473ffffffffffffffffffffffffffffffffffffffff1673ffffffffffffffffffffffffffffffffffffffff168173ffffffffffffffffffffffffffffffffffffffff1614610972576040517f08c379a0000000000000000000000000000000000000000000000000000000008152600401610969906129e7565b60405180910390fd5b60405180608001604052808573ffffffffffffffffffffffffffffffffffffffff1681526020018481526020018381526020014281525060085f60025481526020019081526020015f205f820151815f015f6101000a81548173ffffffffffffffffffffffffffffffffffffffff021916908373ffffffffffffffffffffffffffffffffffffffff1602179055506020820151816001019081610a159190612bff565b5060408201518160020155606082015181600301559050506001600d5f8673ffffffffffffffffffffffffffffffffffffffff1673ffffffffffffffffffffffffffffffffffffffff1681526020019081526020015f205f6101000a81548160ff021916908315150217905550600484908060018154018082558091505060019003905f5260205f20015f9091909190916101000a81548173ffffffffffffffffffffffffffffffffffffffff021916908373ffffffffffffffffffffffffffffffffffffffff16021790555060025f815480929190610af490612cfb565b91905055507f4fcd0bfa215e8ae284e0888e150c587b2dad10354f86110eb2ae62a26f0b689084848442604051610b2e9493929190612d51565b60405180910390a150505050565b33600d5f8273ffffffffffffffffffffffffffffffffffffffff1673ffffffffffffffffffffffffffffffffffffffff1681526020019081526020015f205f9054906101000a900460ff16610bc6576040517f08c379a0000000000000000000000000000000000000000000000000000000008152600401610bbd90612ec6565b60405180910390fd5b6040518060c0016040528086815260200185815260200184815260200183815260200187815260200142815250600a5f8881526020019081526020015f205f820151815f019081610c179190612bff565b50602082015181600101556040820151816002019081610c379190612bff565b506060820151816003019081610c4d9190612bff565b506080820151816004015560a08201518160050155905050600586908060018154018082558091505060019003905f5260205f20015f90919091909150556003600b5f8881526020019081526020015f206003015f6101000a81548160ff02191690836003811115610cc257610cc1611fca565b5b0217905550505050505050565b606060016003811115610ce557610ce4611fca565b5b600b5f8481526020019081526020015f206003015f9054906101000a900460ff166003811115610d1857610d17611fca565b5b14610e675760026003811115610d3157610d30611fca565b5b600b5f8481526020019081526020015f206003015f9054906101000a900460ff166003811115610d6457610d63611fca565b5b14610e2b57600380811115610d7c57610d7b611fca565b5b600b5f8481526020019081526020015f206003015f9054906101000a900460ff166003811115610daf57610dae611fca565b5b14610def576040518060400160405280601a81526020017f4e6f207265636f7264206f66207468617420426c6f6f645f6964000000000000815250610e26565b6040518060400160405280600981526020017f46756c66696c6c656400000000000000000000000000000000000000000000008152505b610e62565b6040518060400160405280600781526020017f53686970706564000000000000000000000000000000000000000000000000008152505b610e9e565b6040518060400160405280600681526020017f41637469766500000000000000000000000000000000000000000000000000008152505b9050919050565b60605f60038054905067ffffffffffffffff811115610ec757610ec6611d55565b5b604051908082528060200260200182016040528015610f0057816020015b610eed611be8565b815260200190600190039081610ee55790505b5090505f5b600380549050811015611073575f604051806080016040528060075f8581526020019081526020015f205f015f9054906101000a900473ffffffffffffffffffffffffffffffffffffffff1673ffffffffffffffffffffffffffffffffffffffff16815260200160075f8581526020019081526020015f206001018054610f8b90612a32565b80601f0160208091040260200160405190810160405280929190818152602001828054610fb790612a32565b80156110025780601f10610fd957610100808354040283529160200191611002565b820191905f5260205f20905b815481529060010190602001808311610fe557829003601f168201915b5050505050815260200160075f8581526020019081526020015f2060020154815260200160075f8581526020019081526020015f206003015481525090508083838151811061105457611053612d9b565b5b602002602001018190525050808061106b90612cfb565b915050610f05565b508091505090565b6060335f8054906101000a900473ffffffffffffffffffffffffffffffffffffffff1673ffffffffffffffffffffffffffffffffffffffff168173ffffffffffffffffffffffffffffffffffffffff161461110b576040517f08c379a0000000000000000000000000000000000000000000000000000000008152600401611102906129e7565b60405180910390fd5b5f60065467ffffffffffffffff81111561112857611127611d55565b5b60405190808252806020026020018201604052801561116157816020015b61114e611c23565b8152602001906001900390816111465790505b5090505f5b600654811015611497575f60405180610100016040528060095f8581526020019081526020015f205f01805461119b90612a32565b80601f01602080910402602001604051908101604052809291908181526020018280546111c790612a32565b80156112125780601f106111e957610100808354040283529160200191611212565b820191905f5260205f20905b8154815290600101906020018083116111f557829003601f168201915b5050505050815260200160095f8581526020019081526020015f2060010154815260200160095f8581526020019081526020015f20600201805461125590612a32565b80601f016020809104026020016040519081016040528092919081815260200182805461128190612a32565b80156112cc5780601f106112a3576101008083540402835291602001916112cc565b820191905f5260205f20905b8154815290600101906020018083116112af57829003601f168201915b5050505050815260200160095f8581526020019081526020015f2060030180546112f590612a32565b80601f016020809104026020016040519081016040528092919081815260200182805461132190612a32565b801561136c5780601f106113435761010080835404028352916020019161136c565b820191905f5260205f20905b81548152906001019060200180831161134f57829003601f168201915b5050505050815260200160095f8581526020019081526020015f20600401805461139590612a32565b80601f01602080910402602001604051908101604052809291908181526020018280546113c190612a32565b801561140c5780601f106113e35761010080835404028352916020019161140c565b820191905f5260205f20905b8154815290600101906020018083116113ef57829003601f168201915b5050505050815260200160095f8581526020019081526020015f2060050154815260200160095f8581526020019081526020015f2060060154815260200160095f8581526020019081526020015f206007015481525090508083838151811061147857611477612d9b565b5b602002602001018190525050808061148f90612cfb565b915050611166565b50809250505090565b600381815481106114af575f80fd5b905f5260205f20015f915054906101000a900473ffffffffffffffffffffffffffffffffffffffff1681565b6060335f8054906101000a900473ffffffffffffffffffffffffffffffffffffffff1673ffffffffffffffffffffffffffffffffffffffff168173ffffffffffffffffffffffffffffffffffffffff161461156b576040517f08c379a0000000000000000000000000000000000000000000000000000000008152600401611562906129e7565b60405180910390fd5b5f60065467ffffffffffffffff81111561158857611587611d55565b5b6040519080825280602002602001820160405280156115c157816020015b6115ae611c64565b8152602001906001900390816115a65790505b5090505f5b60058054905081101561183f575f6040518060c00160405280600a5f8581526020019081526020015f205f0180546115fd90612a32565b80601f016020809104026020016040519081016040528092919081815260200182805461162990612a32565b80156116745780601f1061164b57610100808354040283529160200191611674565b820191905f5260205f20905b81548152906001019060200180831161165757829003601f168201915b50505050508152602001600a5f8581526020019081526020015f20600101548152602001600a5f8581526020019081526020015f2060020180546116b790612a32565b80601f01602080910402602001604051908101604052809291908181526020018280546116e390612a32565b801561172e5780601f106117055761010080835404028352916020019161172e565b820191905f5260205f20905b81548152906001019060200180831161171157829003601f168201915b50505050508152602001600a5f8581526020019081526020015f20600301805461175790612a32565b80601f016020809104026020016040519081016040528092919081815260200182805461178390612a32565b80156117ce5780601f106117a5576101008083540402835291602001916117ce565b820191905f5260205f20905b8154815290600101906020018083116117b157829003601f168201915b50505050508152602001600a5f8581526020019081526020015f20600401548152602001600a5f8581526020019081526020015f20600501548152509050808383815181106118205761181f612d9b565b5b602002602001018190525050808061183790612cfb565b9150506115c6565b50809250505090565b33600c5f8273ffffffffffffffffffffffffffffffffffffffff1673ffffffffffffffffffffffffffffffffffffffff1681526020019081526020015f205f9054906101000a900460ff166118d2576040517f08c379a00000000000000000000000000000000000000000000000000000000081526004016118c990612e38565b60405180910390fd5b81600d5f8273ffffffffffffffffffffffffffffffffffffffff1673ffffffffffffffffffffffffffffffffffffffff1681526020019081526020015f205f9054906101000a900460ff1661195c576040517f08c379a000000000000000000000000000000000000000000000000000000000815260040161195390612f54565b60405180910390fd5b6002600b5f8681526020019081526020015f206003015f6101000a81548160ff0219169083600381111561199357611992611fca565b5b02179055507f4d59f0468c9ec07c27687d37e38bd6bbf22254a5e0f1cca63c550b9b1b620d7a338585426040516119cd9493929190612f72565b60405180910390a150505050565b60605f60048054905067ffffffffffffffff8111156119fd576119fc611d55565b5b604051908082528060200260200182016040528015611a3657816020015b611a23611c97565b815260200190600190039081611a1b5790505b5090505f5b600480549050811015611ba9575f604051806080016040528060085f8581526020019081526020015f205f015f9054906101000a900473ffffffffffffffffffffffffffffffffffffffff1673ffffffffffffffffffffffffffffffffffffffff16815260200160085f8581526020019081526020015f206001018054611ac190612a32565b80601f0160208091040260200160405190810160405280929190818152602001828054611aed90612a32565b8015611b385780601f10611b0f57610100808354040283529160200191611b38565b820191905f5260205f20905b815481529060010190602001808311611b1b57829003601f168201915b5050505050815260200160085f8581526020019081526020015f2060020154815260200160085f8581526020019081526020015f2060030154815250905080838381518110611b8a57611b89612d9b565b5b6020026020010181905250508080611ba190612cfb565b915050611a3b565b508091505090565b60405180608001604052805f8152602001606081526020015f81526020015f6003811115611be257611be1611fca565b5b81525090565b60405180608001604052805f73ffffffffffffffffffffffffffffffffffffffff168152602001606081526020015f81526020015f81525090565b604051806101000160405280606081526020015f81526020016060815260200160608152602001606081526020015f81526020015f81526020015f81525090565b6040518060c00160405280606081526020015f815260200160608152602001606081526020015f81526020015f81525090565b60405180608001604052805f73ffffffffffffffffffffffffffffffffffffffff168152602001606081526020015f81526020015f81525090565b5f604051905090565b5f80fd5b5f80fd5b5f73ffffffffffffffffffffffffffffffffffffffff82169050919050565b5f611d0c82611ce3565b9050919050565b611d1c81611d02565b8114611d26575f80fd5b50565b5f81359050611d3781611d13565b92915050565b5f80fd5b5f80fd5b5f601f19601f8301169050919050565b7f4e487b71000000000000000000000000000000000000000000000000000000005f52604160045260245ffd5b611d8b82611d45565b810181811067ffffffffffffffff82111715611daa57611da9611d55565b5b80604052505050565b5f611dbc611cd2565b9050611dc88282611d82565b919050565b5f67ffffffffffffffff821115611de757611de6611d55565b5b611df082611d45565b9050602081019050919050565b828183375f83830152505050565b5f611e1d611e1884611dcd565b611db3565b905082815260208101848484011115611e3957611e38611d41565b5b611e44848285611dfd565b509392505050565b5f82601f830112611e6057611e5f611d3d565b5b8135611e70848260208601611e0b565b91505092915050565b5f819050919050565b611e8b81611e79565b8114611e95575f80fd5b50565b5f81359050611ea681611e82565b92915050565b5f805f60608486031215611ec357611ec2611cdb565b5b5f611ed086828701611d29565b935050602084013567ffffffffffffffff811115611ef157611ef0611cdf565b5b611efd86828701611e4c565b9250506040611f0e86828701611e98565b9150509250925092565b5f81519050919050565b5f82825260208201905092915050565b5f819050602082019050919050565b611f4a81611e79565b82525050565b5f81519050919050565b5f82825260208201905092915050565b5f5b83811015611f87578082015181840152602081019050611f6c565b5f8484015250505050565b5f611f9c82611f50565b611fa68185611f5a565b9350611fb6818560208601611f6a565b611fbf81611d45565b840191505092915050565b7f4e487b71000000000000000000000000000000000000000000000000000000005f52602160045260245ffd5b6004811061200857612007611fca565b5b50565b5f81905061201882611ff7565b919050565b5f6120278261200b565b9050919050565b6120378161201d565b82525050565b5f608083015f8301516120525f860182611f41565b506020830151848203602086015261206a8282611f92565b915050604083015161207f6040860182611f41565b506060830151612092606086018261202e565b508091505092915050565b5f6120a8838361203d565b905092915050565b5f602082019050919050565b5f6120c682611f18565b6120d08185611f22565b9350836020820285016120e285611f32565b805f5b8581101561211d57848403895281516120fe858261209d565b9450612109836120b0565b925060208a019950506001810190506120e5565b50829750879550505050505092915050565b5f6020820190508181035f83015261214781846120bc565b905092915050565b5f805f805f8060c0878903121561216957612168611cdb565b5b5f87013567ffffffffffffffff81111561218657612185611cdf565b5b61219289828a01611e4c565b96505060206121a389828a01611e98565b955050604087013567ffffffffffffffff8111156121c4576121c3611cdf565b5b6121d089828a01611e4c565b945050606087013567ffffffffffffffff8111156121f1576121f0611cdf565b5b6121fd89828a01611e4c565b935050608087013567ffffffffffffffff81111561221e5761221d611cdf565b5b61222a89828a01611e4c565b92505060a061223b89828a01611e98565b9150509295509295509295565b5f6020828403121561225d5761225c611cdb565b5b5f61226a84828501611e98565b91505092915050565b61227c81611d02565b82525050565b5f6020820190506122955f830184612273565b92915050565b5f805f805f60a086880312156122b4576122b3611cdb565b5b5f6122c188828901611e98565b955050602086013567ffffffffffffffff8111156122e2576122e1611cdf565b5b6122ee88828901611e4c565b94505060406122ff88828901611e98565b935050606086013567ffffffffffffffff8111156123205761231f611cdf565b5b61232c88828901611e4c565b925050608086013567ffffffffffffffff81111561234d5761234c611cdf565b5b61235988828901611e4c565b9150509295509295909350565b5f82825260208201905092915050565b5f61238082611f50565b61238a8185612366565b935061239a818560208601611f6a565b6123a381611d45565b840191505092915050565b5f6020820190508181035f8301526123c68184612376565b905092915050565b5f81519050919050565b5f82825260208201905092915050565b5f819050602082019050919050565b61240081611d02565b82525050565b5f608083015f83015161241b5f8601826123f7565b50602083015184820360208601526124338282611f92565b91505060408301516124486040860182611f41565b50606083015161245b6060860182611f41565b508091505092915050565b5f6124718383612406565b905092915050565b5f602082019050919050565b5f61248f826123ce565b61249981856123d8565b9350836020820285016124ab856123e8565b805f5b858110156124e657848403895281516124c78582612466565b94506124d283612479565b925060208a019950506001810190506124ae565b50829750879550505050505092915050565b5f6020820190508181035f8301526125108184612485565b905092915050565b5f81519050919050565b5f82825260208201905092915050565b5f819050602082019050919050565b5f61010083015f8301518482035f86015261255c8282611f92565b91505060208301516125716020860182611f41565b50604083015184820360408601526125898282611f92565b915050606083015184820360608601526125a38282611f92565b915050608083015184820360808601526125bd8282611f92565b91505060a08301516125d260a0860182611f41565b5060c08301516125e560c0860182611f41565b5060e08301516125f860e0860182611f41565b508091505092915050565b5f61260e8383612541565b905092915050565b5f602082019050919050565b5f61262c82612518565b6126368185612522565b93508360208202850161264885612532565b805f5b8581101561268357848403895281516126648582612603565b945061266f83612616565b925060208a0199505060018101905061264b565b50829750879550505050505092915050565b5f6020820190508181035f8301526126ad8184612622565b905092915050565b5f81519050919050565b5f82825260208201905092915050565b5f819050602082019050919050565b5f60c083015f8301518482035f8601526126f88282611f92565b915050602083015161270d6020860182611f41565b50604083015184820360408601526127258282611f92565b9150506060830151848203606086015261273f8282611f92565b91505060808301516127546080860182611f41565b5060a083015161276760a0860182611f41565b508091505092915050565b5f61277d83836126de565b905092915050565b5f602082019050919050565b5f61279b826126b5565b6127a581856126bf565b9350836020820285016127b7856126cf565b805f5b858110156127f257848403895281516127d38582612772565b94506127de83612785565b925060208a019950506001810190506127ba565b50829750879550505050505092915050565b5f6020820190508181035f83015261281c8184612791565b905092915050565b5f806040838503121561283a57612839611cdb565b5b5f61284785828601611e98565b925050602061285885828601611d29565b9150509250929050565b5f81519050919050565b5f82825260208201905092915050565b5f819050602082019050919050565b5f608083015f8301516128a05f8601826123f7565b50602083015184820360208601526128b88282611f92565b91505060408301516128cd6040860182611f41565b5060608301516128e06060860182611f41565b508091505092915050565b5f6128f6838361288b565b905092915050565b5f602082019050919050565b5f61291482612862565b61291e818561286c565b9350836020820285016129308561287c565b805f5b8581101561296b578484038952815161294c85826128eb565b9450612957836128fe565b925060208a01995050600181019050612933565b50829750879550505050505092915050565b5f6020820190508181035f830152612995818461290a565b905092915050565b7f796f7520617265206e6f742061204f776e6572202121000000000000000000005f82015250565b5f6129d1601683612366565b91506129dc8261299d565b602082019050919050565b5f6020820190508181035f8301526129fe816129c5565b9050919050565b7f4e487b71000000000000000000000000000000000000000000000000000000005f52602260045260245ffd5b5f6002820490506001821680612a4957607f821691505b602082108103612a5c57612a5b612a05565b5b50919050565b5f819050815f5260205f209050919050565b5f6020601f8301049050919050565b5f82821b905092915050565b5f60088302612abe7fffffffffffffffffffffffffffffffffffffffffffffffffffffffffffffffff82612a83565b612ac88683612a83565b95508019841693508086168417925050509392505050565b5f819050919050565b5f612b03612afe612af984611e79565b612ae0565b611e79565b9050919050565b5f819050919050565b612b1c83612ae9565b612b30612b2882612b0a565b848454612a8f565b825550505050565b5f90565b612b44612b38565b612b4f818484612b13565b505050565b5b81811015612b7257612b675f82612b3c565b600181019050612b55565b5050565b601f821115612bb757612b8881612a62565b612b9184612a74565b81016020851015612ba0578190505b612bb4612bac85612a74565b830182612b54565b50505b505050565b5f82821c905092915050565b5f612bd75f1984600802612bbc565b1980831691505092915050565b5f612bef8383612bc8565b9150826002028217905092915050565b612c0882611f50565b67ffffffffffffffff811115612c2157612c20611d55565b5b612c2b8254612a32565b612c36828285612b76565b5f60209050601f831160018114612c67575f8415612c55578287015190505b612c5f8582612be4565b865550612cc6565b601f198416612c7586612a62565b5f5b82811015612c9c57848901518255600182019150602085019450602081019050612c77565b86831015612cb95784890151612cb5601f891682612bc8565b8355505b6001600288020188555050505b505050505050565b7f4e487b71000000000000000000000000000000000000000000000000000000005f52601160045260245ffd5b5f612d0582611e79565b91507fffffffffffffffffffffffffffffffffffffffffffffffffffffffffffffffff8203612d3757612d36612cce565b5b600182019050919050565b612d4b81611e79565b82525050565b5f608082019050612d645f830187612273565b8181036020830152612d768186612376565b9050612d856040830185612d42565b612d926060830184612d42565b95945050505050565b7f4e487b71000000000000000000000000000000000000000000000000000000005f52603260045260245ffd5b7f596f7520617265206e6f74206120417574686f72697a656420537570706c69655f8201527f7220212100000000000000000000000000000000000000000000000000000000602082015250565b5f612e22602483612366565b9150612e2d82612dc8565b604082019050919050565b5f6020820190508181035f830152612e4f81612e16565b9050919050565b7f596f7520617265206e6f74206120417574686f72697a656420486f73706974615f8201527f6c20212100000000000000000000000000000000000000000000000000000000602082015250565b5f612eb0602483612366565b9150612ebb82612e56565b604082019050919050565b5f6020820190508181035f830152612edd81612ea4565b9050919050565b7f4e6f207065726d6973696f6e20746f205368697020426c6f6f642048657265205f8201527f2121000000000000000000000000000000000000000000000000000000000000602082015250565b5f612f3e602283612366565b9150612f4982612ee4565b604082019050919050565b5f6020820190508181035f830152612f6b81612f32565b9050919050565b5f608082019050612f855f830187612273565b612f926020830186612d42565b612f9f6040830185612273565b612fac6060830184612d42565b9594505050505056fea2646970667358221220a21e668407a497148a594be1bea7d7630f6ecc7563bccc75e35d416a0daf131564736f6c63430008150033",
  "immutableReferences": {},
  "source": "// SPDX-License-Identifier: UNLICENSED\r\npragma solidity ^0.8.17;\r\n\r\nimport \"./lib/DataStructure.sol\";\r\nimport \"./lib/Events.sol\";\r\nimport \"./lib/Modifiers.sol\";\r\n\r\ncontract BloodSupply is DataStructure, Events, Modifiers {\r\n    constructor() {\r\n        owner = msg.sender;\r\n    }\r\n\r\n    // ------------------------    Functions for Owner    -----------------------\r\n    function addSupplier(\r\n        address _supplierAddress,\r\n        string memory _supplierName,\r\n        uint256 _phoneNumber\r\n    ) public checkOwner(msg.sender) {\r\n        mappedSupplier[supplierId] = Supplier(\r\n            _supplierAddress,\r\n            _supplierName,\r\n            _phoneNumber,\r\n            block.timestamp\r\n        );\r\n        authorizedSuppliers[_supplierAddress] = true;\r\n        suppliers.push(_supplierAddress);\r\n        supplierId++;\r\n        emit EventSupplierAdded(\r\n            _supplierAddress,\r\n            _supplierName,\r\n            _phoneNumber,\r\n            block.timestamp\r\n        );\r\n    }\r\n\r\n    function addHospital(\r\n        address _hospitalAddress,\r\n        string memory _hospitalName,\r\n        uint256 _phoneNumber\r\n    ) public checkOwner(msg.sender) {\r\n        mappedHospital[hospitalId] = Hospital(\r\n            _hospitalAddress,\r\n            _hospitalName,\r\n            _phoneNumber,\r\n            block.timestamp\r\n        );\r\n        authorizedHospitals[_hospitalAddress] = true;\r\n        hospitals.push(_hospitalAddress);\r\n        hospitalId++;\r\n        emit EventHospitalAdded(\r\n            _hospitalAddress,\r\n            _hospitalName,\r\n            _phoneNumber,\r\n            block.timestamp\r\n        );\r\n    }\r\n\r\n    //--------------------     Functions for Suppliers   --------------\r\n    function addBlood(\r\n        string memory _donorName,\r\n        uint256 _age,\r\n        string memory _gender,\r\n        string memory _Address,\r\n        string memory _bloodGroup,\r\n        uint256 _bloodVolume\r\n    ) public checkSupplier(msg.sender) {\r\n        mappedDonor[bloodUniqueId] = Donor(\r\n            _donorName,\r\n            _age,\r\n            _gender,\r\n            _Address,\r\n            _bloodGroup,\r\n            _bloodVolume,\r\n            bloodUniqueId,\r\n            block.timestamp\r\n        );\r\n        mappedBloodDetails[bloodUniqueId].currentStatus = Status.Active;\r\n        bloodUniqueId++;\r\n    }\r\n\r\n    function shipBloodToHospital(\r\n        uint _blood_id,\r\n        address _hospitalAddress\r\n    )\r\n        public\r\n        checkSupplier(msg.sender)\r\n        existsHospitalPermission(_hospitalAddress)\r\n    {\r\n        mappedBloodDetails[_blood_id].currentStatus = Status.Shipped;\r\n        emit EventBloodShipped(\r\n            msg.sender,\r\n            _blood_id,\r\n            _hospitalAddress,\r\n            block.timestamp\r\n        );\r\n    }\r\n\r\n    //--------------------------------Function for Hospitals ------------\r\n\r\n    function giveBloodToPatients(\r\n        uint256 _blood_id,\r\n        string memory _patientName,\r\n        uint256 _age,\r\n        string memory _address,\r\n        string memory _bloodGroup\r\n    ) public checkHospital(msg.sender) {\r\n        mappedPatient[_blood_id] = Patient(\r\n            _patientName,\r\n            _age,\r\n            _address,\r\n            _bloodGroup,\r\n            _blood_id,\r\n            block.timestamp\r\n        );\r\n        patients.push(_blood_id);\r\n        mappedBloodDetails[_blood_id].currentStatus = Status.Fulfilled;\r\n    }\r\n\r\n    //----------------------------   Functions for Public  -------------\r\n    function getDataOfSuppliers() external view returns (Supplier[] memory) {\r\n        // new array of structure\r\n        Supplier[] memory supplierData = new Supplier[](suppliers.length);\r\n        for (uint256 i = 0; i < suppliers.length; i++) {\r\n            Supplier memory newStructData = Supplier(\r\n                mappedSupplier[i].supplierAddress,\r\n                mappedSupplier[i].organizationName,\r\n                mappedSupplier[i].phoneNumber,\r\n                mappedSupplier[i].addedTime\r\n            );\r\n            supplierData[i] = newStructData;\r\n        }\r\n        return supplierData;\r\n    }\r\n\r\n    function getDataOfHospitals() external view returns (Hospital[] memory) {\r\n        Hospital[] memory hospitalData = new Hospital[](hospitals.length);\r\n        for (uint256 i = 0; i < hospitals.length; i++) {\r\n            Hospital memory newStructData = Hospital(\r\n                mappedHospital[i].hospitalAddress,\r\n                mappedHospital[i].hospital_name,\r\n                mappedHospital[i].phoneNumber,\r\n                mappedHospital[i].addedTime\r\n            );\r\n            hospitalData[i] = newStructData;\r\n        }\r\n        return hospitalData;\r\n    }\r\n\r\n    function getDataOfBlood() external view returns (BloodDetails[] memory) {\r\n        BloodDetails[] memory bloodData = new BloodDetails[](bloodUniqueId);\r\n        for (uint256 i = 0; i < bloodUniqueId; i++) {\r\n            BloodDetails memory newStructData = BloodDetails(\r\n                mappedDonor[i].bloodUniqueId,\r\n                mappedDonor[i].bloodGroup,\r\n                mappedDonor[i].donatedTime,\r\n                mappedBloodDetails[i].currentStatus\r\n            );\r\n            bloodData[i] = newStructData;\r\n        }\r\n        return bloodData;\r\n    }\r\n\r\n    function getBloodStatus(uint256 _id) external view returns (string memory) {\r\n        return\r\n            (mappedBloodDetails[_id].currentStatus == Status.Active)\r\n                ? \"Active\"\r\n                : (mappedBloodDetails[_id].currentStatus == Status.Shipped)\r\n                ? \"Shipped\"\r\n                : (mappedBloodDetails[_id].currentStatus == Status.Fulfilled)\r\n                ? \"Fulfilled\"\r\n                : \"No record of that Blood_id\";\r\n    }\r\n\r\n    // function only for owner\r\n    function getDataOfDonors()\r\n        external\r\n        view\r\n        checkOwner(msg.sender)\r\n        returns (Donor[] memory)\r\n    {\r\n        Donor[] memory donorData = new Donor[](bloodUniqueId);\r\n        for (uint256 i = 0; i < bloodUniqueId; i++) {\r\n            Donor memory newStructData = Donor(\r\n                mappedDonor[i].donorName,\r\n                mappedDonor[i].age,\r\n                mappedDonor[i].gender,\r\n                mappedDonor[i].Address,\r\n                mappedDonor[i].bloodGroup,\r\n                mappedDonor[i].bloodVolume,\r\n                mappedDonor[i].bloodUniqueId,\r\n                mappedDonor[i].donatedTime\r\n            );\r\n            donorData[i] = newStructData;\r\n        }\r\n        return donorData;\r\n    }\r\n\r\n    function getDataOfPatients()\r\n        external\r\n        view\r\n        checkOwner(msg.sender)\r\n        returns (Patient[] memory)\r\n    {\r\n        Patient[] memory patientData = new Patient[](bloodUniqueId);\r\n        for (uint256 i = 0; i < patients.length; i++) {\r\n            Patient memory newStructData = Patient(\r\n                mappedPatient[i].patientName,\r\n                mappedPatient[i].age,\r\n                mappedPatient[i].Address,\r\n                mappedPatient[i].bloodGroup,\r\n                mappedPatient[i].usedBloodId,\r\n                mappedPatient[i].usedTime\r\n            );\r\n            patientData[i] = newStructData;\r\n        }\r\n        return patientData;\r\n    }\r\n}",
  "sourcePath": "C:\\Users\\21627\\Desktop\\blood_donation\\contracts\\BloodSupply.sol",
  "compiler": {
    "name": "solc",
    "version": "0.8.21+commit.d9974bed.Emscripten.clang"
  },
  "schemaVersion": "3.4.16",
  "updatedAt": "2023-10-24T13:46:05.068Z",
  "networkType": "ethereum",
  "devdoc": {
    "kind": "dev",
    "methods": {},
    "version": 1
  },
  "userdoc": {
    "kind": "user",
    "methods": {},
    "version": 1
  }
}